:1000000045C0000060C000005EC000005CC0000091
:100010005AC0000058C0000056C0000054C0000084
:1000200052C0000050C000004EC000004CC0000094
:100030004AC00000CAC0000046C0000044C0000022
:1000400042C0000040C000003EC000003CC00000B4
:100050003AC0000038C0000036C0000034C00000C4
:1000600032C0000030C000002EC000002CC00000D4
:100070002AC0000028C0000026C0000024C00000E4
:1000800022C0000020C000001EC0000011241FBEBE
:10009000CFEFD0E4DEBFCDBF11E0A0E0B1E0E2EEF3
:1000A000FDE000E00BBF02C007900D92AE33B10738
:1000B000D9F721E0AEE3B1E001C01D92A635B20749
:1000C000E1F7D3D38CC69CCF181619069CF440E0F8
:1000D00050E077E063E00BC00000215031092115AA
:1000E0003105D1F74F5F5F4F4817590719F0272F98
:1000F000362FF2CF08955E9888B95F9A00005F9816
:1001000082E090E0E1CF089581E0F5CF089581315C
:1001100018F48158F0CF08958155EDCF089584E605
:1001200090E0D2DF88E3E7DF86E0E5DF8FE0E3DF22
:1001300081E0E1DF8AE090E0C7CF08955E9A88B958
:100140005F9A00005F9881E090E0BECF08950F9322
:100150001F93CF93DF93182FEB01D6DF888188237D
:1001600059F001E0010F812FD2DF8991E7DF88810B
:10017000882311F0102FF5CFDF91CF911F910F91B0
:1001800008958BE0809381008DE790E09093890043
:100190008093880082E080936F0010928500109217
:1001A00084008091200190912101A0912201B091C1
:1001B00023018093420190934301A0934401B093A3
:1001C00045018FB780688FBF08951F920F920FB6B9
:1001D0000F9211248F939F93AF93BF93809142010D
:1001E00090914301A0914401B09145010197A1096B
:1001F000B1098093420190934301A0934401B093CD
:100200004501892B8A2B8B2B99F481E08093460141
:100210008091200190912101A0912201B0912301B0
:100220008093420190934301A0934401B093450110
:10023000BF91AF919F918F910F900FBE0F901F9024
:100240001895CF92DF92EF92FF926B017C01209183
:100250003E0130913F014091400150914101E3D373
:10026000882309F452C020E030E0A901C701B6019B
:10027000DAD3811106C0E1E9F0E0808188708083E3
:1002800005C0E1E9F0E080818360808328E539E3FF
:1002900044E75FE3C701B601C6D388233CF48FEF80
:1002A0009FEF909399008093980023C020E034E260
:1002B00044EF56E4C701B60105D518162CF4109288
:1002C00099001092980015C020E030E040E053E41F
:1002D000C701B601FBD49B01AC0160E074E284EF7E
:1002E0009AE4A5D30CD4615071097093990060937E
:1002F00098001092950010929400C0923E01D09206
:100300003F01E0924001F0924101FF90EF90DF90B9
:10031000CF90089580E4809390008BE080939100CB
:1003200060E070E0CB018DCF0895EAE7F0E08081D6
:10033000806E80830895CF93DF9393B180915401B1
:100340008230C1F0833009F443C081116DC09095B3
:100350009F70913041F481E08093540110924F01DD
:1003600010924E0161C0923009F05EC083E080932C
:1003700054015AC0C0914E01D0914F01C83CD105E3
:1003800000F560915001709151018091520190915E
:100390005301BAD3CC0FDD1F9E01220F331F220F52
:1003A000331F220F331FCE01820F931FF7D480918A
:1003B0004E0190914F01019690934F0180934E0111
:1003C00033C010924F0110924E01109254012CC074
:1003D000C0914E01D0914F01C83CD105F8F4CE0137
:1003E000880F991F9C01220F331F220F331F220FEA
:1003F000331F820F931FCDD4BC0180E090E0B0D3B7
:100400006093500170935101809352019093530176
:100410002196D0934F01C0934E0106C010924F0118
:1004200010924E0110925401DF91CF91089520B1A6
:1004300020952E7F90915501913041F018F0923027
:1004400061F011C091E0909355010FC1222309F48E
:100450000CC192E09093550102C1211100C191E0BD
:100460009093550102C191E090935501FEC08430F4
:1004700019F491509093490110924801E8C092E01C
:10048000909354012230F9F44BE754ED62E973E4A0
:100490004093500150935101609352017093530166
:1004A00090914801923049F4843009F0D0C0809195
:1004B00049018F5F80934901CAC082E0809348015F
:1004C0001092490108952430F9F444EA50ED64EAA9
:1004D00073E4409350015093510160935201709323
:1004E000530190914801933049F4843009F0AFC032
:1004F000809149018F5F80934901A9C083E0809377
:1005000048011092490108952830F9F441E75DE966
:100510006EEA73E44093500150935101609352018D
:100520007093530190914801943049F4843009F05C
:100530008EC0809149018F5F8093490188C084E01B
:10054000809348011092490108952031F9F440E068
:1005500050E064EC73E44093500150935101609378
:1005600052017093530190914801953049F48430C1
:1005700009F06DC0809149018F5F8093490167C088
:1005800085E0809348011092490108952032F9F4E2
:1005900040E050E06CED73E4409350015093510102
:1005A000609352017093530190914801963049F441
:1005B000843009F04CC0809149018F5F80934901DC
:1005C00046C086E080934801109249010895203486
:1005D000F1F444EA50EF66EF73E440935001509316
:1005E00051016093520170935301909148019730EB
:1005F00041F4843061F5809149018F5F8093490116
:1006000026C087E080934801109249010895203860
:10061000F1F440E050ED62E074E4409350015093F7
:1006200051016093520170935301909148019830A9
:1006300041F4843061F4809149018F5F80934901D6
:1006400006C088E080934801109249010895809186
:1006500049018530B8F084E0809349010895909174
:100660005401913009F00ECF0ACF10925001109230
:100670005101109252011092530190914901911130
:10068000F6CEFACE0895CF92DF92EF92FF92CF93FB
:10069000DF938091780090917900EC01C45FD140A4
:1006A000D0934D01C0934C010197873E934008F0D1
:1006B00057C0C0905001D0905101E0905201F0908D
:1006C000530120E030E0A901C701B601ACD1882375
:1006D00009F446C080914A0190914B019E012F5030
:1006E0003109821793072CF0225E3F4F28173907F4
:1006F000F4F4D0934B01C0934A01BE01DD2314F4FE
:100700006F5F7F4F75956795882777FD8095982F48
:1007100029D29B01AC01C701B60121D160935001E0
:1007200070935101809352019093530119C0BC0101
:10073000992314F46F5F7F4F75956795882777FD30
:100740008095982F0FD29B01AC01C701B60107D14C
:100750006093500170935101809352019093530123
:10076000DF91CF91FF90EF90DF90CF90089580912F
:1007700049018230A9F028F4882349F0813049F0FA
:1007800053C08330E1F0843009F430C04DC0BCDC8C
:100790004BC088E1BCDC80E0D1DC80E0CFDC44C031
:1007A00086E1B5DC80E0CADC80E0C8DC81E0C6DC44
:1007B00081E0C4DC80E0C2DC80E0C0DC35C084E1E4
:1007C000A6DC80E0BBDC80E0B9DC81E0B7DC81E066
:1007D000B5DC82E0B3DC82E0B1DC81E0AFDC81E05B
:1007E000ADDC80E0ABDC80E0A9DC1EC082E18FDC08
:1007F00080E0A4DC80E0A2DC81E0A0DC81E09EDC83
:1008000082E09CDC82E09ADC83E098DC83E096DC8A
:1008100082E094DC82E092DC81E090DC81E08EDC9E
:1008200080E08CDC80E08ADC80915401823041F0F1
:10083000833071F0813089F464E271E088CC0895EE
:100840006AE271E081E083DC81E0809347010895F2
:1008500064E371E081E07BCC0895809147018130B1
:1008600019F41092470150CC089511B88FEF82B956
:1008700090EF94B99FE095B987B918B88AB91BB8B9
:1008800049DD4DDC8CE037DC50DD84E190E0A0E018
:10089000B0E08093200190932101A0932201B093B6
:1008A00023018093420190934301A0934401B093AC
:1008B000450167DC80E41FDCC8E1D1E000E211E023
:1008C00089913CDCC017D107D9F780E814DC88E4B3
:1008D00012DCC0E1D1E008E111E089912FDCC01702
:1008E000D107D9F780E807DC80E505DCC8E0D1E076
:1008F00000E111E0899122DCC017D107D9F780E827
:10090000FADB88E5F8DBC0E0D1E008E011E089918E
:1009100015DCC017D107D9F780E8EDDB109255013F
:1009200010925401C0E0D0E08C2F81DDACDE03DDFD
:10093000C43019F41CDFCD2F01C0CF5F609150018E
:100940007091510180915201909153017ADC909104
:1009500046019923E1F3D0934601E6CF5058BB27D7
:10096000AA270ED075C166D130F06BD120F031F4DA
:100970009F3F11F41EF45BC10EF4E095E7FB51C1FB
:10098000E92F77D180F3BA176207730784079507B9
:1009900018F071F49EF58FC10EF4E0950B2EBA2F6E
:1009A000A02D0B01B90190010C01CA01A001112475
:1009B000FF27591B99F0593F50F4503E68F11A1621
:1009C000F040A22F232F342F4427585FF3CF4695B2
:1009D00037952795A795F0405395C9F77EF41F16D4
:1009E000BA0B620B730B840BBAF09150A1F0FF0F9E
:1009F000BB1F661F771F881FC2F70EC0BA0F621F8A
:100A0000731F841F48F4879577956795B795F79579
:100A10009E3F08F0B3CF9395880F08F09927EE0F0B
:100A2000979587950895D9D008F481E008950CD062
:100A30000FC107D140F0FED030F021F45F3F19F034
:100A4000F0C0511139C1F3C014D198F39923C9F3FF
:100A50005523B1F3951B550BBB27AA2762177307C4
:100A6000840738F09F5F5F4F220F331F441FAA1F78
:100A7000A9F333D00E2E3AF0E0E830D09150504038
:100A8000E695001CCAF729D0FE2F27D0660F771FE6
:100A9000881FBB1F261737074807AB07B0E809F0C8
:100AA000BB0B802DBF01FF2793585F4F2AF09E3F5D
:100AB000510568F0B6C000C15F3FECF3983EDCF32F
:100AC000869577956795B795F7959F5FC9F7880FD6
:100AD000911D9695879597F90895E1E0660F771F28
:100AE000881FBB1F621773078407BA0720F0621BB9
:100AF000730B840BBA0BEE1F88F7E095089504D0B2
:100B00006894B111D9C00895BCD088F09F5790F077
:100B1000B92F9927B751A0F0D1F0660F771F881F22
:100B2000991F1AF0BA95C9F712C0B13081F0C3D03D
:100B3000B1E00895C0C0672F782F8827B85F39F0DB
:100B4000B93FCCF3869577956795B395D9F73EF481
:100B500090958095709561957F4F8F4F9F4F089529
:100B6000E89409C097FB3EF4909580957095619547
:100B70007F4F8F4F9F4F9923A9F0F92F96E9BB27FD
:100B80009395F695879577956795B795F111F8CF79
:100B9000FAF4BB0F11F460FF1BC06F5F7F4F8F4FE4
:100BA0009F4F16C0882311F096E911C0772321F0DA
:100BB0009EE8872F762F05C0662371F096E8862F72
:100BC00070E060E02AF09A95660F771F881FDAF7C9
:100BD000880F9695879597F90895990F0008550FF6
:100BE000AA0BE0E8FEEF16161706E807F907C0F0B3
:100BF00012161306E407F50798F0621B730B840BBB
:100C0000950B39F40A2661F0232B242B252B21F494
:100C100008950A2609F4A140A6958FEF811D811D34
:100C2000089597F99F6780E870E060E008959FEF6E
:100C300080EC089500240A94161617061806090673
:100C4000089500240A941216130614060506089542
:100C5000092E0394000C11F4882352F0BB0F40F4CA
:100C6000BF2B11F460FF04C06F5F7F4F8F4F9F4F0A
:100C7000089557FD9058440F551F59F05F3F71F08C
:100C80004795880F97FB991F61F09F3F79F08795F3
:100C90000895121613061406551FF2CF4695F1DF7C
:100CA00008C0161617061806991FF1CF869571050C
:100CB000610508940895E894BB2766277727CB0140
:100CC00097F908958ADF08F48FEF08950BD0C0CF0D
:100CD000B1DF28F0B6DF18F0952309F0A2CFA7CF37
:100CE0001124EACFC6DFA0F3959FD1F3950F50E012
:100CF000551F629FF001729FBB27F00DB11D639FCE
:100D0000AA27F00DB11DAA1F649F6627B00DA11D73
:100D1000661F829F2227B00DA11D621F739FB00D19
:100D2000A11D621F839FA00D611D221F749F332789
:100D3000A00D611D231F849F600D211D822F762F22
:100D40006A2F11249F5750408AF0E1F088234AF01F
:100D5000EE0FFF1FBB1F661F771F881F915050406B
:100D6000A9F79E3F510570F05CCFA6CF5F3FECF333
:100D7000983EDCF3869577956795B795F795E79557
:100D80009F5FC1F7FE2B880F911D9695879597F968
:100D90000895A8E1B0E042E050E005C012D0272F4E
:100DA00011C0DC01CB01FC01F999FECF06C0F2BDF8
:100DB000E1BDF89A319600B40D9241505040B8F719
:100DC0000895262FF999FECF1FBA92BD81BD20BD8F
:100DD0000FB6F894FA9AF99A0FBE01960895F8940E
:020DE000FFCF43
:100DE2001F1F1F1F1F1F1F1F00001F1F1F1F1F1F4F
:100DF200000000001F1F1F1F0000000000001F1F37
:100E0200010000007265616479007265636F72644B
:0E0E1200696E6700706C61796261636B00004D
:00000001FF
