S01500006E6D75656C5F70726F6A6563742E7372656398
S113000045C0000060C000005EC000005CC000008D
S11300105AC0000058C0000056C0000054C0000080
S113002052C0000050C000004EC000004CC0000090
S11300304AC00000F1C0000046C0000044C00000F7
S113004042C0000040C000003EC000003CC00000B0
S11300503AC0000038C0000036C0000034C00000C0
S113006032C0000030C000002EC000002CC00000D0
S11300702AC0000028C0000026C0000024C00000E0
S113008022C0000020C000001EC0000011241FBEBA
S1130090CFEFD0E4DEBFCDBF11E0A0E0B1E0E4EDEE
S11300A0FEE000E00BBF02C007900D92AE33B10733
S11300B0D9F721E0AEE3B1E001C01D92A735B20744
S11300C0E1F718D405C79CCF181619069CF440E034
S11300D050E077E063E00BC00000215031092115A6
S11300E03105D1F74F5F5F4F4817590719F0272F94
S11300F0362FF2CF08955E9888B95F9A00005F9812
S113010082E090E0E1CF089581E0F5CF0895813158
S113011018F48158F0CF08958155EDCF089584E601
S113012090E0D2DF88E3E7DF86E0E5DF8FE0E3DF1E
S113013081E0E1DF8AE090E0C7CF08955E9A88B954
S11301405F9A00005F9881E090E0BECF08950F931E
S11301501F93CF93DF93182FEB01D6DF8881882379
S113016059F001E0010F812FD2DF8991E7DF888107
S1130170882311F0102FF5CFDF91CF911F910F91AC
S11301800895E1ECF0E0808188618083E2ECF0E0A6
S113019080818660808383E38093C4001092C500CD
S11301A008958091C000882354F4A6ECB0E0E0ECFC
S11301B0F0E08C918093420180818823D4F30895E8
S11301C0E0ECF0E080818823ECF78091C60008958C
S11301D08BE0809381008DE790E090938900809379
S11301E0880082E080936F00109285001092840052
S11301F08091200190912101A0912201B0912301CD
S11302008093430190934401A0934501B093460128
S11302108FB780688FBF08951F920F920FB60F9209
S113022011248F939F93AF93BF9380914301909137
S11302304401A0914501B09146010197A109B1097A
S11302408093430190934401A0934501B0934601E8
S1130250892B8A2B8B2B99F481E080934701809121
S1130260200190912101A0912201B091230180935A
S1130270430190934401A0934501B0934601BF917B
S1130280AF919F918F910F900FBE0F901F90189573
S1130290CF92DF92EF92FF926B017C0120913E019D
S11302A030913F0140914001509141010ED4882387
S11302B009F452C020E030E0A901C701B60105D419
S11302C0811106C0E1E9F0E080818870808305C077
S11302D0E1E9F0E080818360808328E539E344E745
S11302E05FE3C701B601F1D388233CF48FEF9FEF9E
S11302F0909399008093980023C020E034E244EF67
S113030056E4C701B60130D518162CF410929900A2
S11303101092980015C020E030E040E053E4C7019B
S1130320B60126D59B01AC0160E074E284EF9AE447
S1130330D0D337D4615071097093990060939800B9
S11303401092950010929400C0923E01D0923F0109
S1130350E0924001F0924101FF90EF90DF90CF9046
S1130360089580E4809390008BE08093910060E096
S113037070E0CB018DCF0895EAE7F0E08081806ED4
S113038080830895CF93DF93909155019230A9F023
S1130390933009F440C091116AC0813039F48093DC
S11303A055011092500110924F0161C0823009F042
S11303B05EC083E0809355015AC0C0914F01D09133
S11303C05001C83CD10500F5609151017091520172
S11303D08091530190915401E9D3CC0FDD1F9E010C
S11303E0220F331F220F331F220F331FCE01820F20
S11303F0931F4DD580914F01909150010196909398
S1130400500180934F0133C01092500110924F015C
S1130410109255012CC0C0914F01D0915001C83C9D
S1130420D105F8F4CE01880F991F9C01220F331FC8
S1130430220F331F220F331F820F931F23D5BC01BA
S113044080E090E0DFD36093510170935201809378
S11304505301909354012196D0935001C0934F01BE
S113046006C01092500110924F0110925501DF9175
S1130470CF91089590B19095392F307F23B1209575
S11304802F7090915601913041F018F0923071F034
S113049015C091E0909356012EC1311103C022235F
S11304A009F429C192E09093560132C1311130C14F
S11304B021112EC191E0909356011DC191E09093BA
S11304C0560119C1843019F4915090934A01109245
S11304D0490109C192E0909355012130F9F444EAAD
S11304E050ED62E873E440935101509352016093DC
S11304F053017093540190914901913049F484302F
S113050009F0F1C080914A018F5F80934A01EBC0EA
S113051081E08093490110924A0108952230F9F450
S11305204BE754ED62E973E4409351015093520157
S1130530609353017093540190914901923049F4AE
S1130540843009F0D0C080914A018F5F80934A01C2
S1130550CAC082E08093490110924A010895243070
S1130560F9F444EA50ED64EA73E440935101509382
S11305705201609353017093540190914901933057
S113058049F4843009F0AFC080914A018F5F8093B1
S11305904A01A9C083E08093490110924A01089559
S11305A02830F9F441E75DE96EEA73E440935101C0
S11305B050935201609353017093540190914901F7
S11305C0943049F4843009F08EC080914A018F5FE1
S11305D080934A0188C084E08093490110924A01C3
S11305E008953031F9F440E050E064EC73E4409352
S11305F051015093520160935301709354019091AF
S11306004901953049F4843009F06DC080914A0164
S11306108F5F80934A0167C085E0809349011092FF
S11306204A0108953032F9F440E050E06CED73E48F
S113063040935101509352016093530170935401BC
S113064090914901963049F4843009F04CC080916E
S11306504A018F5F80934A0146C086E08093490136
S113066010924A0108953034F1F444EA50EF66EFF1
S113067073E440935101509352016093530170937A
S1130680540190914901973041F4843061F580918F
S11306904A018F5F80934A0126C087E08093490115
S11306A010924A0108953038F1F440E050ED62E0D0
S11306B074E4409351015093520160935301709339
S11306C0540190914901983041F4843061F480914F
S11306D04A018F5F80934A0106C088E080934901F4
S11306E010924A01089580914A018530B8F084E05F
S11306F080934A0108951092510110925201109270
S113070053011092540190914A019111DBCEDFCE36
S113071090915501913009F0E0CEDCCE0895CF924E
S1130720DF92EF92FF92CF93DF93809178009091C4
S11307307900EC01C45FD140D0934E01C0934D01C8
S11307400197873E934008F050C0C0905101D0906B
S11307505201E0905301F090540120E030E0A901EF
S1130760C701B601B2D1882309F43FC080914B017F
S113077090914C019E012A503109821793072CF065
S11307802C5E3F4F28173907DCF4D0934C01C093FB
S11307904B01CE016AE070E04ED3882777FD809547
S11307A0982F32D29B01AC01C701B6012AD16093C4
S11307B0510170935201809353019093540115C0D9
S11307C06AE070E038D3882777FD8095982F1CD293
S11307D09B01AC01C701B60114D160935101709320
S11307E052018093530190935401DF91CF91FF9074
S11307F0EF90DF90CF90089580914A018230A9F064
S113080028F4882349F0813049F053C08330E1F063
S1130810843009F430C04DC077DC4BC088E177DC0C
S113082080E08CDC80E08ADC44C086E170DC80E01F
S113083085DC80E083DC81E081DC81E07FDC80E0BA
S11308407DDC80E07BDC35C084E161DC80E076DC4B
S113085080E074DC81E072DC81E070DC82E06EDCDC
S113086082E06CDC81E06ADC81E068DC80E066DCEC
S113087080E064DC1EC082E14ADC80E05FDC80E072
S11308805DDC81E05BDC81E059DC82E057DC82E006
S113089055DC83E053DC83E051DC82E04FDC82E012
S11308A04DDC81E04BDC81E049DC80E047DC80E02A
S11308B045DC80915501823041F0833071F0813004
S11308C089F464E271E043CC08956AE271E081E066
S11308D03EDC81E080934801089564E371E081E0A7
S11308E036CC089580914801813019F41092480162
S11308F00BCC089511B82FEF22B990EF94B98FE083
S113090085B927B918B89AB98BB92BDD08DC8CE006
S1130910F2DB32DD84E190E0A0E0B0E080932001DE
S113092090932101A0932201B0932301809343016A
S113093090934401A0934501B093460149DC21DC26
S113094030DC80E4D8DBC8E1D1E000E211E0899139
S1130950F5DBC017D107D9F780E8CDDB88E4CBDB22
S1130960C0E1D1E008E111E08991E8DBC017D107CB
S1130970D9F780E8C0DB80E5BEDBC8E0D1E000E168
S113098011E08991DBDBC017D107D9F780E8B3DB2D
S113099088E5B1DBC0E0D1E008E011E08991CEDB6D
S11309A0C017D107D9F780E8A6DB10925601109240
S11309B0550100E010E0C0ECD0E0F12C98819923BF
S11309C014F4EFDB02C0FCDB082F812F53DDA7DE1C
S11309D0802FD8DC143019F40FDF1F2D01C01F5FE6
S11309E06091510170915201809153019091540191
S11309F04FDC909147019923E1F3F0924701DECF58
S1130A005058BB27AA270ED075C166D130F06BD1E0
S1130A1020F031F49F3F11F41EF45BC10EF4E09515
S1130A20E7FB51C1E92F77D180F3BA176207730747
S1130A308407950718F071F49EF58FC10EF4E095C4
S1130A400B2EBA2FA02D0B01B90190010C01CA0184
S1130A50A0011124FF27591B99F0593F50F4503E2F
S1130A6068F11A16F040A22F232F342F4427585F21
S1130A70F3CF469537952795A795F0405395C9F739
S1130A807EF41F16BA0B620B730B840BBAF09150F1
S1130A90A1F0FF0FBB1F661F771F881FC2F70EC090
S1130AA0BA0F621F731F841F48F487957795679563
S1130AB0B795F7959E3F08F0B3CF9395880F08F04C
S1130AC09927EE0F979587950895D9D008F481E07A
S1130AD008950CD00FC107D140F0FED030F021F4BE
S1130AE05F3F19F0F0C0511139C1F3C014D198F32C
S1130AF09923C9F35523B1F3951B550BBB27AA279B
S1130B0062177307840738F09F5F5F4F220F331F0C
S1130B10441FAA1FA9F333D00E2E3AF0E0E830D0D8
S1130B2091505040E695001CCAF729D0FE2F27D0DB
S1130B30660F771F881FBB1F261737074807AB07A9
S1130B40B0E809F0BB0B802DBF01FF2793585F4F1E
S1130B502AF09E3F510568F0B6C000C15F3FECF338
S1130B60983EDCF3869577956795B795F7959F5FE3
S1130B70C9F7880F911D9695879597F90895E1E037
S1130B80660F771F881FBB1F621773078407BA0796
S1130B9020F0621B730B840BBA0BEE1F88F7E095F1
S1130BA0089504D06894B111D9C00895BCD088F0D8
S1130BB09F5790F0B92F9927B751A0F0D1F0660F45
S1130BC0771F881F991F1AF0BA95C9F712C0B13060
S1130BD081F0C3D0B1E00895C0C0672F782F882773
S1130BE0B85F39F0B93FCCF3869577956795B3959F
S1130BF0D9F73EF490958095709561957F4F8F4F0E
S1130C009F4F0895E89409C097FB3EF49095809512
S1130C10709561957F4F8F4F9F4F9923A9F0F92FBE
S1130C2096E9BB279395F695879577956795B7953C
S1130C30F111F8CFFAF4BB0F11F460FF1BC06F5F22
S1130C407F4F8F4F9F4F16C0882311F096E911C034
S1130C50772321F09EE8872F762F05C0662371F055
S1130C6096E8862F70E060E02AF09A95660F771F69
S1130C70881FDAF7880F9695879597F90895990F45
S1130C800008550FAA0BE0E8FEEF16161706E80752
S1130C90F907C0F012161306E407F50798F0621B73
S1130CA0730B840B950B39F40A2661F0232B242B48
S1130CB0252B21F408950A2609F4A140A6958FEF67
S1130CC0811D811D089597F99F6780E870E060E0B9
S1130CD008959FEF80EC089500240A9416161706D1
S1130CE018060906089500240A9412161306140619
S1130CF005060895092E0394000C11F4882352F07C
S1130D00BB0F40F4BF2B11F460FF04C06F5F7F4F33
S1130D108F4F9F4F089557FD9058440F551F59F01A
S1130D205F3F71F04795880F97FB991F61F09F3FD4
S1130D3079F087950895121613061406551FF2CFFD
S1130D404695F1DF08C0161617061806991FF1CF4D
S1130D5086957105610508940895E894BB27662774
S1130D607727CB0197F908958ADF08F48FEF089568
S1130D700BD0C0CFB1DF28F0B6DF18F0952309F00F
S1130D80A2CFA7CF1124EACFC6DFA0F3959FD1F35A
S1130D90950F50E0551F629FF001729FBB27F00D25
S1130DA0B11D639FAA27F00DB11DAA1F649F66277A
S1130DB0B00DA11D661F829F2227B00DA11D621FC9
S1130DC0739FB00DA11D621F839FA00D611D221F83
S1130DD0749F3327A00D611D231F849F600D211D67
S1130DE0822F762F6A2F11249F5750408AF0E1F00A
S1130DF088234AF0EE0FFF1FBB1F661F771F881F53
S1130E0091505040A9F79E3F510570F05CCFA6CF9A
S1130E105F3FECF3983EDCF3869577956795B7953D
S1130E20F795E7959F5FC1F7FE2B880F911D969567
S1130E30879597F9089597FB072E16F4009406D02A
S1130E4077FD08D00BD007FC05D03EF49095819532
S1130E509F4F0895709561957F4F0895AA1BBB1B02
S1130E6051E107C0AA1FBB1FA617B70710F0A61BA6
S1130E70B70B881F991F5A95A9F780959095BC01C7
S1130E80CD010895A8E1B0E042E050E005C012D0E1
S1130E90272F11C0DC01CB01FC01F999FECF06C05C
S1130EA0F2BDE1BDF89A319600B40D924150504024
S1130EB0B8F70895262FF999FECF1FBA92BD81BDC8
S1130EC020BD0FB6F894FA9AF99A0FBE01960895C8
S1070ED0F894FFCFC0
S1130ED41F1F1F1F1F1F1F1F00001F1F1F1F1F1F58
S1130EE4000000001F1F1F1F0000000000001F1F40
S1130EF4010000007265616479007265636F726455
S1110F04696E6700706C61796261636B000056
S9030000FC
